:10000000387D00203D8A0100358B0100358B0100D1
:1000100000000000000000000000000000000000E0
:10002000000000000000000000000000697B0000EC
:100030000000000000000000917C0000D97C00005E
:10004000358B0100358B0100358B01008D4B010094
:10005000B9400100358B010081170000358B01008C
:10006000C5180000315201004952010061520100DF
:100070007952010091520100A952010085890100C5
:1000800099890100AD8901005558000069580000A8
:100090007D5800000000000000000000091600006C
:1000A000358B010045170000358B0100358B0100B1
:1000B0000000000010B5064C2378002B07D1054B3B
:1000C000002B02D0044800E000BF0123237010BDC4
:1000D00000030020000000007C900200084B10B5D7
:1000E000002B03D00749084800E000BF0748036819
:1000F000002B00D110BD064B002BFBD09847F9E731
:1001000000000000040300207C9002007C900200AC
:100110000000000080B586B000AFF86008007A608B
:1001200019000B23FB18021C1A700823FB180A1C69
:100130001A8000237B610F4B19221A700D4B7A68CD
:100140009A600C4B0822BA1812889A81094B0B222C
:10015000BA185A60074B0122DA81064B6422322119
:100160001800054B984703007B617B691800BD466A
:1001700006B080BDBC4700202D2E000080B596B093
:1001800000AFF86008007A6019000B23FB18021C0E
:100190001A700823FB180A1C1A8000233B651023E1
:1001A000FB180B22BA1812781A7000237B650BE03B
:1001B0007B6D01337A6D79688A1811781022BA182C
:1001C000D1547B6D01337B650823FB181A887B6D46
:1001D0009A42EDDC0C4B19221A700B4B1022BA1804
:1001E0005A600823FB181B8801339AB2064BDA8148
:1001F000054B64211800054B984703003B653B6D98
:100200001800BD4616B080BDBC470020552D00002B
:1002100080B582B000AF01237B60FB1C00221A7006
:10022000FA1C174B11001800164B9847FB1C1B7843
:10023000332B04D0144B1800144B984703E0144B95
:100240001800124B98470E4B01211800114B98478C
:100250000B4B01211800104B9847094B0021180047
:100260000E4B9847064B002118000D4B98470D4B3D
:100270001800064B98477B681800BD4602B080BD49
:1002800000000020610A00007C41020075B80000F7
:1002900090410200BD090000E9080000510900007A
:1002A0000D080000A041020080B582B000AF00231D
:1002B0007B6000233B600FE0194B3A689200D258F4
:1002C000184B1B68D31ADA179B1853407A68D31857
:1002D0007B603B6801333B603B68032BECDD124BDA
:1002E0001A68104B19680E4B9200D1500E4B1B68C8
:1002F00001330E4A134004D5013B042252421343FA
:1003000001331A00084B1A6001231A1C7B68532B17
:1003100001DC00231A1CD3B21800BD4602B080BD18
:100320001C030020CC4700202C0300200300008089
:10033000B0B58AB002AF1423FA187D4B1100180033
:100340007C4B98470023FB611423FB181B78002B80
:1003500000D1E8E01323FA18012328210020764C6D
:10036000A0470300BB611223FA18012329210020B2
:10037000714CA0470300BB611123FA1801232A2105
:1003800000206D4CA0470300BB611023FA18012325
:100390002B210020684CA0470300BB610F23FA18F3
:1003A00001232C210020644CA0470300BB610E23D5
:1003B000FA1801232D2100205F4CA0470300BB61E8
:1003C0001223FB181B781AB25C4B1A805B4B00227D
:1003D0009B5E9BB21B029AB21323FB181B789BB245
:1003E000D3189BB21AB2554B1A801023FB181B78F6
:1003F0001AB2524B5A80514B02229B5E9BB21B0297
:100400009AB21123FB181B789BB2D3189BB21AB275
:100410004A4B5A800E23FB181B781AB2474B9A801E
:10042000464B04229B5E9BB21B029AB20F23FB1821
:100430001B789BB2D3189BB21AB2404B9A803F4BA9
:1004400000229B5E18003E4B9847021C3D4B1A60F1
:100450003A4B02229B5E1800394B9847021C394BDD
:100460005A60364B04229B5E1800354B9847021C9D
:10047000344B9A60334B1A68334B101C9847050075
:10048000304B5A68304B101C984704002D4B9A682B
:100490002D4B101C984703002C4A2D4801930094C3
:1004A0002B0040212B4CA047294B18002A4B984782
:1004B000244B1A68244B101C984703001AB23B1DAA
:1004C0001A80204B5A68204B101C984703001AB220
:1004D0003B1D5A801B4B9A681B4B101C984703000E
:1004E0001AB23B1D9A80174B1A68174B101C98477D
:1004F00002001A4B1A601A4B984703009AB23B1D30
:10050000DA803B1DDB88FB613B1D1800154B9847CB
:10051000031E04D0144B18000F4B984703E0134BF5
:1005200018000D4B9847FB691800BD4608B0B0BDD8
:1005300000000020250A0000150100003003002003
:10054000D507000038030020DD120200B44102008C
:10055000D04700201530020075B80000CC470020BD
:10056000A90200008D4F0000D4410200E4410200C6
:10057000B0B588B002AF0C23FA18664B1100180012
:10058000654B984700237B610C23FB181B78002BDD
:1005900000D1B9E00B23FA180123282100205F4C79
:1005A000A04703003B610A23FA18012329210020F8
:1005B0005A4CA04703003B610923FA1801232A2162
:1005C0000020564CA04703003B610823FA18012382
:1005D0002B210020514CA04703003B61FA1D012351
:1005E0002C2100204D4CA04703003B61BA1D012384
:1005F0002D210020494CA04703003B610A23FB1832
:100600001B781AB2464B1A80454B00229B5E9BB268
:100610001B029AB20B23FB181B789BB2D3189BB218
:100620001AB23F4B1A800823FB181B781AB23C4BB6
:100630005A803B4B02229B5E9BB21B029AB209235B
:10064000FB181B789BB2D3189BB21AB2344B5A805A
:10065000BB1D1B781AB2324B9A80314B04229B5E31
:100660009BB21B029AB2FB1D1B789BB2D3189BB2A4
:100670001AB22B4B9A802A4B00229B5E1800294B02
:100680009847021C284B1A60254B02229B5E1800DB
:10069000244B9847021C244B5A60214B04229B5E3A
:1006A0001800204B9847021C1F4B9A601E4B1A687B
:1006B0001E4B101C984705001B4B5A681B4B101C07
:1006C00098470400184B9A68184B101C9847030071
:1006D000174A1848019300942B004021164CA0475C
:1006E000144B1800154B98470F4B1A680F4B101CF2
:1006F00098470200124B1A60124B9847114B9847CB
:10070000104B98470F4B984700231800BD4606B082
:10071000B0BDC04600000020250A00001501000001
:1007200030030020D507000038030020DD1202004E
:10073000B4410200D04700201530020075B8000017
:10074000CC470020A9020000B0B586B000AFF86029
:1007500008007A6019000B23FB18021C1A7008238A
:10076000FB180A1C1A80FB685C68FB68D8680823C1
:10077000FB181D887A680B23FB1819782B00A047FB
:1007800003007B617B691800BD4606B0B0BDB0B503
:1007900086B000AFF86008007A6019000B23FB18E0
:1007A000021C1A700823FB180A1C1A80FB681C68BC
:1007B000FB68D8680823FB181D887A680B23FB1890
:1007C00019782B00A04703007B617B691800BD46A8
:1007D00006B0B0BD80B582B000AF0200BB1D1A806C
:1007E000BB1D00229A5E074B10009847021C064B67
:1007F0008321C905101C9847031C181CBD4602B074
:1008000080BDC0461D130200D50A020090B587B016
:1008100000AF78600A00FB1C1A701023FA18786881
:10082000012320212E4CA04703007B617B69002B14
:1008300008D10C23FA18786801232321284CA047FB
:1008400003007B617B69002B38D1FB1C1B78002BDC
:100850000BD11023FB181A7808218A431A700C2335
:10086000FB181A7808210A431A70FB1C1B78012B0D
:100870000BD11023FB181A7808218A431A700C2315
:10088000FB181A7808218A431A70FB1C1B78022B6C
:100890000BD11023FB181A7808210A431A700C2375
:1008A000FB181A7808218A431A701023FA187868FE
:1008B000012320210B4CA04703007B617B69002BA7
:1008C00008D10C23FA18786801232321054CA0478E
:1008D00003007B617B691800BD4607B090BDC04630
:1008E000490700008F07000090B585B000AF786021
:1008F0000A00FB1C1A700823FA18786801232021CB
:10090000114CA0470300FB60FB68002B17D1FB1CB8
:100910001B780F221340DAB20823FB1810011A7853
:100920000F210A40111C021C0A431A700823FA18EE
:10093000786801232021054CA0470300FB60FB6879
:100940001800BD4605B090BD490700008F070000A4
:1009500090B585B000AF78600A00FB1C1A700823C0
:10096000FA18786801232321124CA0470300FB608A
:10097000FB68002B19D1FB1C1B7803221340DAB251
:100980000823FB1803210A4010011A7830218A43FA
:10099000111C021C0A431A700823FA1878680123F4
:1009A0002321054CA0470300FB60FB681800BD46EF
:1009B00005B090BD490700008F07000090B585B0D5
:1009C00000AF78600A00FB1C1A700823FA187868D8
:1009D00001232321114CA0470300FB60FB68002B7F
:1009E00017D1FB1C1B7801221340DAB20823FB1835
:1009F000D0011A787F210A40111C021C0A431A7088
:100A00000823FA18786801232321054CA047030026
:100A1000FB60FB681800BD4605B090BD49070000AB
:100A20008F07000090B585B000AF7860396008236B
:100A3000FA18786801232721084CA0470300FB60BF
:100A40000823FB181B781B07DB0FDBB21A003B687F
:100A50001A70FB681800BD4605B090BD490700003C
:100A600090B585B000AF786039603A687868012346
:100A70000F21044CA0470300FB60FB681800BD4633
:100A800005B090BD4907000080B500AFC046BD4627
:100A900080BD80B500AFC046BD4680BD80B500AF0B
:100AA000254B9847254B9847AE20254B9847D52096
:100AB000234B98478020224B9847A820204B9847EB
:100AC0003F201F4B9847D3201D4B984700201C4BBD
:100AD000984740201A4B98478D20194B984714206F
:100AE000174B9847A620164B9847A420144B9847BD
:100AF000A120134B9847C820114B9847DA20104B80
:100B0000984712200E4B984781200D4B98478F2015
:100B10000B4B9847D9200A4B9847F120084B984730
:100B2000DB20074B98474020054B9847AF20044BEC
:100B30009847C046BD4680BD930A0000890A000060
:100B4000450B000080B584B000AF0200FB1D1A7099
:100B50000C23FB1800221A700C23FB18FA1D1278C4
:100B60005A700C4B3C221A700A4B0C22BA185A606D
:100B7000084B0222DA81074B00229A60054B0022C3
:100B80009A81044B64211800034B9847C046BD4628
:100B900004B080BD4C480020552D000080B584B0C5
:100BA00000AF0200FB1D1A700C23FB1840221A70C4
:100BB0000C23FB18FA1D12785A700C4B3C221A7049
:100BC0000A4B0C22BA185A60084B0222DA81074BF2
:100BD00000229A60054B00229A81044B6421180080
:100BE000034B9847C046BD4604B080BD4C4800202A
:100BF000552D000080B582B000AF7860034B7A6855
:100C00001A60C046BD4602B080BDC0464403002005
:100C100090B583B000AF040008001100FB1D221C3A
:100C20001A70BB1D021C1A707B1D0A1C1A70084B1F
:100C30001A68FB1D1B78DB011900BB1D1B78CB1844
:100C4000D3187A1D12781A70C046BD4603B090BD05
:100C50004403002080B582B000AF0200FB1D1A7073
:100C6000BB1D0A1C1A70074B1A68FB1D1B78DB01A1
:100C70001900BB1D1B78CB18D3181B781800BD4674
:100C800002B080BD44030020B0B584B000AF0500C1
:100C90000C0010001900FB1D2A1C1A70BB1D221C21
:100CA0001A707B1D021C1A703B1D0A1C1A70FB1D5A
:100CB0001A787B1D1B78D318802B06DD7B1DFA1D4F
:100CC0001278802149428A1A1A700F23FB18BA1D24
:100CD0001278D2081A70BB1D1A780F23FB181B78E4
:100CE000DB00D31A01229A400E23FB181A707B1DD9
:100CF0001B78002B00D1A4E03B1D1B78012B2FD0CB
:100D0000022B00D195E0002B61D09BE0FA1D7B1DEA
:100D100012781B78D318DAB20D23FC180F23FB18B6
:100D20001B7811001800494B9847030023700D23CE
:100D3000FB180D22B9180E22BA18097812780A4346
:100D40001A70FA1D7B1D12781B78D318D9B20D23A7
:100D5000FB181A780F23FB18187800233C4CA04787
:100D60007B1D1B787A1D591E1170002BCED169E0B6
:100D7000FA1D7B1D12781B78D318DAB20D23FC18EC
:100D80000F23FB181B7811001800304B9847030005
:100D900023700E23FB181B785BB2DB435BB20D2282
:100DA000BA18127852B213405AB20D23FB181A70B7
:100DB000FA1D7B1D12781B78D318D9B20D23FB18AE
:100DC0001A780F23FB1818780023214CA0477B1DAD
:100DD0001B787A1D591E1170002BC9D132E0FA1D03
:100DE0007B1D12781B78D318DAB20D23FC180F2361
:100DF000FB181B7811001800144B98470300237050
:100E00000D23FB180D22B9180E22BA180978127892
:100E10004A401A70FA1D7B1D12781B78D318D9B27C
:100E20000D23FB181A780F23FB1818780023084CA1
:100E3000A0477B1D1B787A1D591E1170002BCED147
:100E400000E0C046BD4604B0B0BDC0460514000079
:100E500065130000B0B582B000AF05000C001000B3
:100E60001900FB1D2A1C1A70BB1D221C1A707B1D49
:100E7000021C1A703B1D0A1C1A703B1D1B78002BAC
:100E800018D00FE0BA1D3B1D12781B78D318D9B2C9
:100E90001823FB181C787B1D1A78FB1D187823007B
:100EA000064CA0473B1D1B783A1D591E1170002BA4
:100EB000E8D100E0C046BD4602B0B0BD890C0000DC
:100EC00090B587B000AF0400080011003B60FB1D27
:100ED000221C1A70BB1D021C1A707B1D0A1C1A7082
:100EE0001023FB18BA1D12781A700F23FB187A1DF5
:100EF00012781A703B681A7A1323FB18D2081A70FA
:100F00003B681B7A07221340DBB2002B06D0132369
:100F1000FB181A781323FB1801321A701323FB18DD
:100F20001B789BB23A68527A92B253439AB2FB1D35
:100F30001B783968897A5B1A99B20C23FB184A43EB
:100F40001A803B685A680C23FB181B88D3187B61F6
:100F50001223FB183A68527A1A700E23FB180022EB
:100F60001A700B23FB183A68127A1A701123FB18B7
:100F700000221A7034E01123FB181B78072213405B
:100F8000DBB2002B07D10E23FB187A6912781A7096
:100F90007B6901337B610E23FB181B785BB2002B4E
:100FA00009DA0F23FB1819781023FB181B7801228C
:100FB00018001D4B98471023FB181022BA181278FE
:100FC00001321A700E23FA180E23FB181B78DB1857
:100FD00013701123FB181A781123FB1801321A70B1
:100FE0001123FA180B23FB1812781B789A42C2D3EC
:100FF0000F23FB180F22BA18127801321A7010232F
:10100000FB18BA1D12781A701223FB181A781223D3
:10101000FB18013A1A701223FB181B78002B9CD185
:10102000C046BD4607B090BD7112000090B585B0B6
:1010300002AF0400080011003B60FB1D221C1A7067
:10104000BB1D021C1A707B1D0A1C1A703B681A7AA1
:101050003B685C7A7B1D1978BB1D187800230093D0
:1010600023000B4CA0473B681B78002B00D00AE004
:101070003C687B1D1A78BB1D1978FB1D187823006E
:10108000044CA047C046C046BD4603B090BDC04614
:10109000550E0000C10E000090B587B000AFF8609B
:1010A000080011007B600B23FB18021C1A700A2336
:1010B000FB180A1C1A701723FB180B22BA18127897
:1010C0001A70FB681B780A2B11D10B23FB1817220F
:1010D000BA1812781A707B685A7A0A23FB181B78A0
:1010E000D318DAB20A23FB1801321A7018E0FB6831
:1010F0001B780D2B14D0FB6818787C680A23FB182A
:101100001A780B23FB18197823000B4CA0477B6837
:10111000197A0B23FB180B22BA1812788A181A7046
:10112000FB680133FB60FB681B78002BC9D1C0460C
:10113000BD4607B090BDC0462D10000080B582B0FE
:1011400000AF0200FB1D1A70FB1DFA1D12780F2163
:101150000A401A70FB1D1B78502252421343DBB227
:101160001800034B9847C046BD4602B080BDC0463C
:10117000450B000080B582B000AF0200FB1D1A7065
:10118000FB1DFA1D12787F210A401A70FB1D1B7887
:101190001B09DBB210221343DBB20233DBB21800AF
:1011A000064B9847FB1D1B780F221340DBB218003B
:1011B000024B9847C046BD4602B080BD450B0000BB
:1011C00080B582B000AF0200FB1D1A70FB1DFA1D36
:1011D00012783F210A401A70FB1D1B7840221343EE
:1011E000DBB21800024B9847C046BD4602B080BD36
:1011F000450B000090B583B000AF184B1800184B9A
:101200009847184B98470020174B9847FB1D002222
:101210001A701AE0BB1D00221A700CE0BB1D197871
:10122000FB1D187801230022104CA047BB1D1A7823
:10123000BB1D01321A70BB1D1B785BB2002BEDDAAF
:10124000FB1D1A78FB1D01321A70FB1D1B78072B42
:10125000E0D9C046BD4603B090BDC046480300205B
:10126000F50B00009D0A0000C1110000651300008D
:1012700090B585B000AF040008001100FB1D221CD2
:101280001A70BB1D021C1A707B1D0A1C1A70FB1DF4
:101290001B785BB2002B5DDBBB1D1B783F2B59D845
:1012A0000E23FB18BA1D1278D2081A70BB1D1A78CB
:1012B0000E23FB181B78DB00D31A01229A400D2362
:1012C000FB181A700F23FC18FB1D1A780E23FB184D
:1012D0001B7811001800214B9847030023707B1DD9
:1012E0001B78012B04D0022B1DD0002B0BD025E046
:1012F0000F23FB180F22B9180D22BA18097812789B
:101300000A431A701AE00D23FB181B785BB2DB430B
:101310005BB20F22BA18127852B213405AB20F239E
:10132000FB181A700AE00F23FB180F22B9180D22C0
:10133000BA18097812784A401A70C0460F23FB1871
:101340001A78FB1D19780E23FB1818780023044C1B
:10135000A04700E0C046BD4605B090BD05140000A2
:1013600065130000B0B582B000AF05000C0010009E
:101370001900FB1D2A1C1A70BB1D221C1A707B1D34
:10138000021C1A703B1D0A1C1A703B1D1B7801229F
:101390005340DBB2002B0DD0BB1D1A78FB1D1B7810
:1013A00011001800124B984703001A007B1D1B7890
:1013B000934218D07B1D1A78BB1D1978FB1D1B7832
:1013C00018000C4B9847FB1D1B7818000A4B9847D8
:1013D000BB1D1B781800094B98477B1D1B78180014
:1013E000074B984700E0C046BD4602B0B0BDC046BE
:1013F000550C0000110C00003D110000751100009B
:101400009D0B000080B582B000AF0200FB1D1A707A
:10141000BB1D0A1C1A70BB1D1A78FB1D1B7811001E
:101420001800034B984703001800BD4602B080BD6A
:10143000550C000080B584B000AF78607B681B68F5
:10144000FB60FB685B7EDBB25BB2002B01DA012341
:1014500000E000231800BD4604B080BD80B584B014
:1014600000AF78607B681B68FB60C0467B68180033
:101470000B4B9847031EF9D1FB681B7BDBB20222A2
:101480001343DAB2FB681A73C0467B681800044B3A
:101490009847031EF9D1C046BD4604B080BDC04682
:1014A0003514000080B584B000AF78600A00FB1CE2
:1014B0001A707B681B68FB60FB68FA1C12789A75CF
:1014C000C046BD4604B080BD80B584B000AF020008
:1014D000FB1D1A70FB1D1A78474B9200D358FB6016
:1014E000FB681B681B7EDAB2FB681B68DB7DDBB226
:1014F0001340DBB2BB60BB680122134045D0FB68E0
:101500001B6801221A76C046FB6818003B4B9847BF
:10151000031EF9D1FB685B69991CFA685161FA688E
:101520001268528B92B21A80FB681B8B9BB2013BF4
:101530009BB2FA68191C1183002B08D0FB685B7FF3
:10154000002B22D0FB6818002D4B98471DE0FB684C
:10155000012118002B4B9847FB681B7FDBB2052B42
:1015600013D1FB6800221A77FB68DB7E1A00012387
:1015700013400AD0FB689B7E1A000123134004D05D
:10158000FB689B68FA6810009847BB680422134008
:1015900014D0FB681B6804221A76FB68DB7E1A00F5
:1015A000022313400AD0FB689B7E1A0002231340DB
:1015B00004D0FB68DB68FA6810009847BB68022219
:1015C000134014D0FB681B6802221A76FB68DB7E8E
:1015D0001A00042313400AD0FB689B7E1A000423E0
:1015E000134004D0FB681B69FA6810009847C04696
:1015F000BD4604B080BDC0466048002035140000E0
:101600005D140000A514000080B500AF0020024B5F
:101610009847C046BD4680BDC914000080B582B061
:1016200000AF0200FB1D1A70074AFB1D1B78190052
:101630001F230B40012199400B0019008023D1503A
:10164000C046BD4602B080BD00E100E080B584B078
:1016500000AF0200FB1D1A70FB1D1A78374B920079
:10166000D358FB60FB681B68BB60BB689B79DBB22F
:101670001A00012313400ED0BB6801229A71FB6847
:101680001433002B07D0FB685B7C002B03D0FB6876
:101690009B6900209847BB689B79DBB21A00022344
:1016A000134047D0BB6802229A71FB689B899BB2AA
:1016B000002B33D0FB689A68FB68DB899BB2591C0E
:1016C00088B2F968C8815B00D3181B889AB2BB68DE
:1016D0009A81FB689B899BB2013B9AB2FB689A8115
:1016E000FB689B899BB2002B18D1FB68202200214C
:1016F0009954BB6802221A71BB6802229A711920A0
:101700000F4B9847FB681433002B07D0FB689B7C7A
:10171000002B03D0FB68DB6900209847FB6814337B
:10172000002B07D0FB681B7C002B03D0FB685B6998
:1017300000209847C046BD4604B080BD64480020E4
:101740001D16000080B500AF0020024B9847C04630
:10175000BD4680BD4D16000080B500AF024B9847D6
:10176000C046BD4680BDC046193D010080B500AFF2
:10177000024B9847C046BD4680BDC0466D3D010046
:1017800080B586B000AF494B9847494B1B8C9BB244
:10179000DAB21723FB180F210A401A701723FB181F
:1017A0001A78444B9200D3583B61414A3B691B78FD
:1017B0000F210B40D9B23F23D1543D490F23FB18D1
:1017C0004E228A5C1A703B691B783B4A1B01D31876
:1017D00002331B889BB2BB603B691B78374A1B01F5
:1017E000D31802331B889BB27B60BA687B68D21A1D
:1017F0003B695A610F23FB181B780122134016D056
:101800002B4A4E230121D1543B6910225A743B6963
:101810001B7C1A000123134042D03B695B68002BFC
:101820003ED03B695B683A691000984738E00F2367
:10183000FB181B780222134016D01D4A4E230221AA
:10184000D1543B6900225A743B691B7C1A00022365
:10185000134025D03B699B68002B21D03B699B68D6
:101860003A69100098471BE00F23FB181B780422ED
:10187000134015D00E4A4E230421D1543B69062251
:101880005A743B691B7C1A000423134008D03B693F
:10189000DB68002B04D03B69DB683A69100098478D
:1018A000074B9847C046BD4606B080BD591700009B
:1018B00000480041A0070020704800205007002089
:1018C0006D17000080B582B000AF154B1B697B60BF
:1018D000144B9B693B60124B9A683B681A43104B50
:1018E0009A60104B104A9A6108E07B685A687B68DE
:1018F0001B68180090477B689B687B607B68002BA7
:10190000F3D1074BDB683B60054B9B683A68D243D9
:101910001A40034B9A60C046BD4602B080BDC04627
:101920001C00002000040042FFFF0F0F80B582B0B2
:1019300000AF02003960FB1D1A70FB1D1B78012BE4
:101940000AD0022B0FD0002B14D10E4B0D4A9169F7
:101950003A680A439A610FE00A4B0A4AD1693A6829
:101960000A43DA6108E0074B064A116A3A680A43FB
:101970001A6201E0172300E000231800BD4602B000
:1019800080BDC0460004004080B500AF02210220A7
:10199000074B9847074B01221A70C046054B1B782E
:1019A000DBB21A0001231340F8D1C046BD4680BD0A
:1019B0002D1900000004004280B584B000AF7860AB
:1019C0007B681B68FB60FB68DB69072213405A1EBB
:1019D0009341DBB21800BD4604B080BD80B582B033
:1019E00000AF7860C0467B681800044B9847031E20
:1019F000F9D1C046BD4602B080BDC046B91900004D
:101A000080B584B000AF78607B681B68FB60FB68C2
:101A10001B681B01DB0FDBB21A000B23FB18511EE6
:101A20008A411A700823FB187A68528B1A807B68E7
:101A30009B8B9AB20823FB180821791809888A1A07
:101A40001A807B689B8B9BB2013B9AB27B689A831E
:101A50000B23FB181B78002B10D07B68DB7A002B44
:101A60001CD07B689B8B9BB2012B17D1FB685B68FA
:101A70008022D2021A43FB685A600FE07B68DB7A4F
:101A8000002B0BD07B689B8B9BB2002B06D1FB6895
:101A90005B688022D2021A43FB685A607B689B8B8A
:101AA0009BB2002B0ED17B689B7A002B0AD07B68FF
:101AB00018000E4B9847FB685B68C02292021A43DD
:101AC000FB685A607B681800084B98477B681A6A65
:101AD0000823FB181B88D318FA682821525CD2B25D
:101AE0001A70C046BD4604B080BDC046DD19000076
:101AF00080B584B000AF78607B681B68FB60FB68D2
:101B00005B8B9BB21A000423134004D07B68252210
:101B10001E21995424E00A23FB187A68528B1A80FC
:101B20007B689B8B9AB20A23FB180A2179180988D3
:101B30008A1A1A807B689B8B9BB2013B9AB27B68A6
:101B40009A837B681800084B98477B681A6A0A23B7
:101B5000FB181B88D3181B78D9B2FB68282299542C
:101B6000BD4604B080BDC046DD19000080B584B01C
:101B700000AF78607B681B68FB60FB681B7EDBB294
:101B80001A00012313402BD0FB6801221A76FB6850
:101B90005B8B9BB21A000223134004D07B68252282
:101BA000412199541CE0FB685B8B9BB21A00042313
:101BB000134015D07B682522182199547B68002298
:101BC0009A837B689B7A002B0AD07B681800134BA2
:101BD0009847FB685B68C02292021A43FB685A6010
:101BE0007B689B8B9AB27B685A837B6825229B5CBF
:101BF000DBB2052B0ED17B6824229B5CDBB2002B71
:101C000004D17B681800064B984703E07B681800F6
:101C1000044B9847C046BD4604B080BDDD190000A6
:101C2000F11A0000011A000080B584B000AFF8601E
:101C3000B960FB1D1A70FB1D1B78FA6802339B000C
:101C4000D3180433BA681A60FB681B7EDBB25AB241
:101C5000FB1D1B78012199400B005BB213435BB263
:101C6000DAB2FB681A76C046BD4604B080BD0000FB
:101C700090B587B000AF786039607B681B683B61C6
:101C80003B685A687B681A623B685A887B689A830B
:101C90007B682422012199547B68252205219954CF
:101CA0003B691B681B01DB0FDBB21A000F23FB181B
:101CB000511E8A411A703B685B7A002B06D03B6844
:101CC0009A7A7B68110018003B4B98470F23FB184A
:101CD0001B78002B0BD03B685B88012B07D13B693D
:101CE0005B688022D2021A433B695A6005E03B6977
:101CF0005B68324A1A403B695A603B681B7A002B8A
:101D000045D03B681B885A003B685B7A9B031343B2
:101D10001A0080231B021A433B695A621723FC18DE
:101D20007B681800264B9847030023703B695B686B
:101D3000224A1A403B695A601723FB181B78002B74
:101D400007D11723FC187B6818001E4B9847030027
:101D500023701723FB181B78002B14D13B69032237
:101D60009A753B681B881B0A9BB2782213439BB26F
:101D70005A003B685B7A9B031343012213431A000A
:101D80003B695A6212E01723FB181B780FE03B698E
:101D900003229A753B681B885B0001221A433B684B
:101DA0005B7A9B0313431A003B695A6200231800B5
:101DB000BD4607B090BDC04601580000FFFFFBFFC5
:101DC000A35700004557000080B582B000AF78608F
:101DD00039607B689B8B9BB2002B01D005230CE004
:101DE0007B6801229A727B680122DA723A687B680A
:101DF00011001800034B984703001800BD4602B0BD
:101E000080BDC046711C000080B584B000AF786012
:101E100039607B681B68FB603B685B7A002B06D0EF
:101E20003B689A7A7B68110018001E4B9847FB6844
:101E30005B681D4A1A40FB685A603B685A687B68B9
:101E40001A623B685A887B689A837B682422002147
:101E500099547B68252205219954FB6803229A75C1
:101E60003B681B7A002B0DD03B681B885A003B68EF
:101E70005B7A9B0313431A0080231B021A43FB68FF
:101E80005A6209E03B681B885A003B685B7A9B03F7
:101E900013431A00FB685A6200231800BD4604B0C1
:101EA00080BDC04601580000FFFFFBFF80B582B037
:101EB00000AF786039607B689B8B9BB2002B01D0B0
:101EC00005230CE07B6801229A727B680122DA729A
:101ED0003A687B6811001800034B9847030018000C
:101EE000BD4602B080BDC046091E000080B586B068
:101EF00000AF0200FB1D1A70FB1D1A78934B920075
:101F0000D3587B617B691B683B613B691B681B0184
:101F1000DB0FDBB21A000F23FB18511E8A411A7027
:101F20000E23FB187A69527E1A707B691B7EDAB227
:101F30000E23FB180E21791809780A401A707B6964
:101F40005B8B9BB2002B09D17B699B8B9BB2002BD7
:101F500004D07B6918007E4B984770E07B695B8BEF
:101F60009BB2002B39D07B699B8B9BB2002B34D169
:101F70007B6925229B5CDBB2052B2ED17B69242259
:101F80009B5CDBB2002B28D13B6903221A757B696D
:101F900000225A837B692522002199547B699B7A10
:101FA000002B0BD07B6918006A4B98473B695B6834
:101FB000C02292021A433B695A6002E03B69012247
:101FC0001A760E23FB181B780122134037D07B6949
:101FD000DB687A691000984731E07B695B8B9BB2C4
:101FE000002B2CD07B699B8B9BB2002B27D03B69AD
:101FF0005B8B9BB21A002023134011D10F23FB18D7
:102000001B7801225340DBB2002B04D17B699B8BF0
:102010009BB2012B04D07B692522412199540EE00B
:102020007B6924229B5CDBB2002B04D17B69180006
:10203000494B984703E07B691800484B98477B69F8
:102040005B8B9BB2002B47D07B699B8B9BB2002B99
:1020500042D17B6925229B5CDBB2052B3CD17B699D
:1020600024229B5CDBB2012B36D13B691B7EDBB2A9
:102070001A000223134002D03B6902221A763B6900
:1020800003221A757B6900225A837B69252200216D
:1020900099540E23FB181B78022213400BD07B6946
:1020A00024229B5CDBB2012B05D17B691B697A6919
:1020B0001000984710E00E23FB181B7801221340F4
:1020C0000AD07B6924229B5CDBB2002B04D17B69A4
:1020D000DB687A69100098477B6925229B5CDBB23C
:1020E000052B2ED07B6925229B5CDBB2002B28D0F0
:1020F0003B6903221A757B6900225A837B6900229F
:102100009A837B6925229B5CDBB2412B0ED07B69D5
:102110009B7A002B0AD07B6918000E4B98473B69CD
:102120005B68E022D2021A433B695A600E23FB1817
:102130001B780422134004D07B695B697A69100024
:102140009847C046BD4606B080BDC046E85C00204A
:102150006D1B0000DD190000F11A0000011A0000DB
:1021600080B500AFBFF34F8F024B034ADA60BFF375
:102170004F8FFEE700ED00E00400FA0580B500AFE8
:10218000024B9847C046BD4680BDC0466121000055
:1021900080B586B000AF78609E4B18009E4B984784
:1021A0009E4B18009C4B98479D4B18009A4B9847A4
:1021B0009C4B1800984B98479B4B1800964B9847A0
:1021C0009A4B1800944B9847994B1800924B98479C
:1021D000984B1800904B9847974B18008E4B984798
:1021E0001723FB1800221A70944B1800944B984741
:1021F000032200210120934B98470200924B1A6062
:10220000914B1B68002B07D1904B19000320904B7A
:10221000984700208F4B98470C23FB1818008E4BD3
:1022200098470C23FB181B780A2B04D00C23FB18AF
:102230001B780D2B37D1894B1800814B9847884B61
:1022400000221A70874B00221A708749874B31226F
:102250001800874B9847854B3122002199548549B6
:10226000814B64221800844B984703003B61814BEB
:102270006322002199547F4B1800714B98473B69AA
:10228000002BECD11723FB1800221A70764B322258
:1022900000211800794B9847764B642200211800E2
:1022A000764B9847B5E06E4B1B78002B59D06D4BA1
:1022B0001B78032B0CD86B4B1B785A1CD1B2694A84
:1022C00011701A000C23FB1819786D4B995405E016
:1022D000634B00221A70634B00221A70614B1B780B
:1022E000012B99D9674A664B11001800664B984735
:1022F000031E2FD065495C4B1B221800644B984786
:10230000594B18004E4B98471723FB1800221A70A0
:10231000554B322200211800584B98475349524BD5
:1023200031221800524B98474F4B1800594B984791
:102330000300302B06D84D4B1800564B984703002E
:10234000DAB200E031221723FB181A70464B18004E
:102350003B4B9847424B00221A70424B00221A70A6
:102360005AE70C23FB181B780D2B00D154E70C23E4
:10237000FB181B78082B04D00C23FB181B787F2B31
:102380001CD10823FB18444A12681A600823FB1862
:1023900018002B4B98471723FB181B78002B37D0BE
:1023A0001723FB181A781723FB18013A1A70172302
:1023B000FB181B782C4A0021D15429E00C23FB1870
:1023C0001B781B2B06D1264B01221A70254B0022AD
:1023D0001A7021E71723FB181B78312B0ED817230F
:1023E000FB181B780C22BA1811781F4AD1541723F6
:1023F000FB181A781723FB1801321A700C23FB18EC
:1024000000225A700C23FB1818000D4B984703E765
:10241000C04601E7785002004959000068500200A8
:10242000E85002008850020098500200A8500200B4
:10243000B8500200C8500200D8500200B44D02004B
:1024400075B80000157F0000C0480020D04F020082
:1024500061B90000019D00009D240000F04F0200C2
:10246000C4070020C5070020FC070020C807002083
:102470008731020030080020B9590000BB2D02004E
:1024800094080020F44F0200BD300200F84F020013
:1024900079300200573102000050020080B584B04C
:1024A00000AF78607B6818000C4B98470300FB6016
:1024B0000DE00B4B1A6801235B4219001000094B19
:1024C00098477B681800054B98470300FB60FB6842
:1024D0000133EED0C046BD4604B080BD11B9000046
:1024E000C0480020CD8E000080B500AF0A4B00220E
:1024F0001A600A4B1B68084A11001800084B9847DD
:10250000054B1B68002B03D0064B802252051A6036
:10251000C046BD4680BDC04698080020C048002087
:102520004588000004ED00E080B584B000AFF8609D
:10253000B9607A6000231800BD4604B080BD000079
:1025400090B587B000AFF860B9607A601723FB18C8
:102550001B221A701723FB181B78084A08480F2102
:10256000084CA047064AB968FB681800054B984715
:1025700000231800BD4607B090BDC04604500200BD
:10258000B40700201530020080B584B000AFF860B9
:10259000B9607A600220034B984700231800BD46BB
:1025A00004B080BD594F000080B584B000AFF86022
:1025B000B9607A60034B984700231800BD4604B009
:1025C00080BDC0467D21000080B584B000AFF860BA
:1025D000B9607A60054AB968FB681800044B9847EF
:1025E00000231800BD4604B080BDC0460C50020058
:1025F0001530020080B584B000AFF860B9607A6031
:1026000001231800BD4604B080BD80B584B000AF82
:10261000F860B9607A6000231800BD4604B080BD40
:1026200080B584B000AFF860B9607A60002318000C
:10263000BD4604B080BD000090B58FB000AFF8601B
:10264000B9607A601823FB1800221A701823FB184F
:1026500000225A701823FB1800221A701823FB1846
:1026600000225A701C23FB1800221A701C23FB182E
:102670001422BA189A601C23FB180122DA811C2349
:10268000FB181822BA185A601C23FB1801229A81E1
:102690002A4B18002A4B984700237B6342E07B6B50
:1026A000284A29480F21294CA047274B1800244BC2
:1026B000984700233B632BE07B6BDAB23B6BDBB2CA
:1026C000D318DAB21C23FB181A701C23FB186422DF
:1026D000642118001E4B98470300FB62FB6A002B25
:1026E0000CD11C23FB181B781A4A17480F21174CD2
:1026F000A047154B1800124B984706E0124B164A9C
:102700001A60114B18000E4B98473B6B01333B632B
:102710003B6B0F2BD0DD114B1800094B98477B6B9F
:1027200010337B637B6B7F2BB9DD0C4B1800044BA4
:10273000984700231800BD460FB090BD24500200FA
:1027400075B8000058500200B40700201530020090
:10275000412F00006050020058202000F04F02007E
:1027600080B582B000AF0200FB1D1A70064BFA1D47
:10277000127811001F220A40012191400A001A60BC
:10278000C046BD4602B080BD00E100E080B584B027
:1027900000AF78607B681B68FB60FB68DB69072221
:1027A00013405A1E9341DBB21800BD4604B080BDF1
:1027B00080B582B000AF7860C0467B681800044BDB
:1027C0009847031EF9D1C046BD4602B080BDC04641
:1027D0008D27000080B582B000AF78607B686422EE
:1027E0001A607B681B4A5A607B6800229A607B688B
:1027F00000221A737B6800221A767B68802292037B
:102800001A617B6801225242DA827B6801225242BD
:102810009A827B680022DA617B6800221A627B68F8
:102820002422002199547B6800229A627B682C2222
:10283000002199547B682D22002199547B682E2217
:10284000002199547B68D7221A86C046BD4602B043
:1028500080BDC046480D000080B584B000AF7860F0
:102860007B681B68BB600023FB607B681800144B0F
:102870009847BB681B6802221A43BB681A607B68D2
:102880001B6818000F4B9847030018000E4B984721
:102890000CE0FB680133FB607B68DB881A00FB6897
:1028A0009A4203D8BB6810225A8306E0BB685B8B50
:1028B0009BB21A0010231340EBD0BD4604B080BD7C
:1028C000B1270000ED5101006127000080B582B002
:1028D00000AF78600A00FB1C1A707B685B7EDBB27D
:1028E0005AB2FB1C1B78012199400B005BB21343C9
:1028F0005BB2DAB27B685A76C046BD4602B080BD94
:1029000090B591B000AF0023FB633A23FB1800227F
:102910001A703B1D1800214B98473B1D204ADA6175
:102920003B1D204A1A623B1DFA229200DA823B23A9
:10293000FB1803221A701EE03A23FC183A1D1A49AC
:102940001A4B18001A4B9847030023703A23FB18C0
:102950001B78002B04D13A23FB181B78FB630FE094
:10296000124B1800134B98473B23FB181A783B2354
:10297000FB18013A1A703B23FB181B78002BDBD1A4
:10298000FB6B002B04D1094B18000B4B984700E060
:10299000C046FB6B1800BD4611B090BDD5270000A6
:1029A000020008000200090000080042C848002098
:1029B000A9550000DD5600005928000080B584B0FC
:1029C00000AF78600E4B00221A700D4B01229A6006
:1029D0000023FB600B4B1B680C22BA181100180077
:1029E000094B9847094B00221A70FB68002B03D053
:1029F000074B802252051A60C046BD4604B080BD18
:102A0000A0080020F0480020458800009C08002015
:102A100004ED00E080B584B000AF78600E4B00227A
:102A20001A700D4B01229A600023FB600B4B1B6850
:102A30000C22BA1811001800094B9847094B0022C4
:102A40001A70FB68002B03D0074B802252051A60D6
:102A5000C046BD4604B080BDA0080020F04800205C
:102A6000458800009C08002004ED00E080B584B09B
:102A700000AF78600E4B00221A700D4B01225A6095
:102A80000023FB600B4B1B680C22BA1811001800C6
:102A9000094B9847094B01221A70FB68002B03D0A1
:102AA000074B802252051A60C046BD4604B080BD67
:102AB000A0080020F0480020458800009C08002065
:102AC00004ED00E080B500AF1149124B0022180060
:102AD000114B98470F4B00211800104B9847104995
:102AE0000C4B012218000C4B98470A4B012118008F
:102AF0000A4B98470B49074B02221800064B984790
:102B0000044B02211800054B9847C046BD4680BDC6
:102B1000BD290000C8480020291C0000CD28000065
:102B2000152A00006D2A000080B582B000AF002396
:102B30007B60144B984703007B607B68002B1AD1A5
:102B4000114B98470120114B98470200104B1A6017
:102B50000322002101200F4B984702000E4B1A6000
:102B60000B4B1B68002B03D00B4B1B68002B03D1B6
:102B700006237B6000E0C0467B681800BD4602B0BB
:102B800080BDC04601290000C52A00007D810000EB
:102B9000C4480020157F0000F048002090B585B0A3
:102BA00000AF78600023FB607B68002B03D07B685C
:102BB0005B68002B03D108235B42FB601FE07B684E
:102BC0001B789AB2104B1A807B685A680E4B5A6079
:102BD0007B68DA890C4B5A800B23FC180A4A0B4B92
:102BE000110018000A4B9847030023700B23FB18B1
:102BF0001B78002B03D006235B42FB60C046FB68BA
:102C00001800BD4605B090BDF4480020C84800201B
:102C1000AD1E000090B585B000AF78600023FB606A
:102C20007B68002B03D07B685B68002B03D10823F3
:102C30005B42FB601FE07B681B789AB2104B1A80E6
:102C40007B689A680E4B5A607B689A890C4B5A8055
:102C50000B23FC180A4A0B4B110018000A4B98472B
:102C6000030023700B23FB181B78002B03D00623D3
:102C70005B42FB60C046FB681800BD4605B090BDD6
:102C8000F4480020C8480020C91D000090B583B05A
:102C900000AF00237B60094B18680023002200214D
:102CA000074CA0470300012B02D014235B427B603A
:102CB0007B681800BD4603B090BDC046C4480020E4
:102CC000BD81000080B584B000AF78600023FB6058
:102CD000084B1B687A6811001800074B98470300DF
:102CE000012B02D01D235B42FB60FB681800BD4630
:102CF00004B080BDC4480020CD8E000080B584B0F3
:102D000000AF78600023FB60044B1A687B681A6090
:102D1000FB681800BD4604B080BDC046F0480020E6
:102D200080B500AF024B1B781800BD4680BDC04681
:102D30009C08002080B582B000AF0200FB1D1A7015
:102D4000034BFA1D12781A70C046BD4602B080BD12
:102D50009C08002080B584B000AF78603960002303
:102D6000FB600023BB6096235B001800284B98474C
:102D70000300FB60FB68002B38D10823FB18180008
:102D8000244B98470300FB60FB68002B30D17B6825
:102D90001800214B98470300FB60FB68002B2AD1E9
:102DA000BB683A68110018001C4B98470300012BC0
:102DB00011D11B4B9847031E11D00020194B984787
:102DC000FB68002B03D021235B42FB6014E003234C
:102DD0005B42FB6010E003235B42FB600CE0124BA4
:102DE00098470200FB681343FB6002E0C04600E026
:102DF000C046FB6807E0C0460B4B98470200FB68E3
:102E00001343FB60FB681800BD4604B080BDC0469C
:102E1000C52C0000FD2C00009D2B0000CD8E000075
:102E2000212D0000352D00008D2C000080B586B0CE
:102E300000AFF860B9607A6000237B6100233B61DA
:102E400096235B001800354B984703007B617B6934
:102E5000002B55D11023FB181800314B9847030065
:102E60007B617B69002B4DD1FB6818002D4B984787
:102E700003007B617B69002B47D13B697A681100B5
:102E80001800294B98470300012B18D1274B98476E
:102E9000031E06D00020264B984703235B427B612C
:102EA00034E0BB681800234B9847FB681800224B9E
:102EB000984703007B617B69002B04D026E0032345
:102EC0005B427B6122E03B697A6811001800164B77
:102ED00098470300012B0AD1144B9847031E0AD0D0
:102EE0000020134B984703235B427B610EE00323D2
:102EF0005B427B610AE0114B984703007B6102E073
:102F0000C04600E0C0467B6903E0C0460B4B9847D3
:102F10007B691800BD4606B080BDC046C52C0000C8
:102F2000FD2C00009D2B0000CD8E0000212D000007
:102F3000352D0000219C0000152C00008D2C000078
:102F400080B586B000AFF860B9607A6000237B611D
:102F500000233B6196235B001800244B9847030035
:102F60007B617B69002B33D11023FB181800204BA9
:102F7000984703007B617B69002B2BD1FB6818000D
:102F80001C4B984703007B617B69002B25D13B6973
:102F90007A6811001800184B98470300012B13D1D1
:102FA000164B9847031E06D00020154B9847032365
:102FB0005B427B6112E0BB681800124B9847124BD2
:102FC000984703007B6106E003235B427B6105E0D9
:102FD000C04600E0C0467B6903E0C0460A4B984704
:102FE0007B691800BD4606B080BDC046C52C0000F8
:102FF000FD2C00009D2B0000CD8E0000212D000037
:10300000352D0000219C00008D2C000080B586B07D
:1030100000AFF86008007A6019000B23FB18021C4F
:103020001A700823FB180A1C1A8000233B61194BF5
:103030000B22BA1812781A7000237B610AE07B69B0
:1030400001337A6979688A181178124AD1547B69F8
:1030500001337B610823FB181A887B699A42EEDCF6
:103060000D4B2A221A700C4B0A4A5A600823FB188F
:103070001B8801339AB2084BDA81074B6421180090
:10308000064B984703003B613B691800BD4606B0FC
:1030900080BDC0460449002044490020552D000051
:1030A00080B586B000AFF86008007A6019000B2385
:1030B000FB18021C1A700823FB180A1C1A80002334
:1030C0007B61134B2A221A70114B0822BA181288FE
:1030D0009A810F4B7A689A600E4B0B22BA181278BD
:1030E0001A700C4B00225A70094B0A4A5A60084B5E
:1030F0000122DA81064B642205211800064B98470D
:1031000003007B617B691800BD4606B080BDC046E8
:1031100044490020044900202D2E000090B585B0C0
:1031200000AF0200FB1D1A70074B1868074AFB1D11
:1031300019780123064CA0470300FB60034B1B7862
:103140001800BD4605B090BD00490020B40800201D
:10315000A130000090B585B000AF0200FB1D1A70D1
:10316000BB1D0A1C1A70084B1868BA1DFB1D197884
:103170000123064CA0470300FB60FB68DBB218008C
:10318000BD4605B090BDC046004900200D3000008E
:1031900090B583B000AFFB1D00221A70FC1D022009
:1031A000214B984703002370FB1DFA1D127807215D
:1031B0008A431A70FB1DFA1D12781A70FB1D1B78CA
:1031C00019000220194B9847FB1DFA1D12780421A3
:1031D0000A431A70FB1D1B7819000220134B9847F5
:1031E0003220134B9847FC1D02200F4B98470300D9
:1031F0002370FB1D1B780422134000D0F0E7C0466B
:10320000FB1DFA1D127808210A401A70FB1D1B785D
:103210000822134000D0C1E7C0460120044B984764
:10322000C046BD4603B090BD1D31000055310000C1
:103230002DDC000080B582B000AFFB1D00221A70AB
:10324000FB1D01221A70FB1D1B78190000201D4B6D
:10325000984701201C4B9847FB1D02221A70FB1D4A
:103260001B7819000020174B98473220164B9847BF
:10327000FB1D27221A70FB1D1B7819000120114B22
:1032800098470120104B9847FB1D86221A70FB1DA2
:103290001B78190000200B4B984701200A4B9847D8
:1032A000FB1D30221A70FB1D1B7819001520054BE1
:1032B00098470120044B9847044B9847C046BD46A9
:1032C00002B080BD553100002DDC000091310000BE
:1032D00090B583B000AFFB1D00221A70FC1D0020CA
:1032E000094B984703002370FB1DFA1D127810212B
:1032F0000A431A70FB1D1B7819000020034B9847E6
:10330000C046BD4603B090BD1D31000055310000E0
:1033100080B588B000AFBA607B600F23FB18021C39
:103320001A700E23FB180A1C1A700220144B9847BF
:103330000300FB61FB69DBB219000220114B9847C7
:103340000A20114B984712200D4B98470300FB6150
:1033500013200B4B98470300BB611420084B984780
:1033600003007B61FB691A04BB691B021A437B697A
:1033700013433B613B691800BD4608B080BDC046A1
:103380001D31000055310000219C000090B583B034
:1033900000AF3A00032312212A20044CA047030067
:1033A0007B607B681800BD4603B090BD1133000000
:1033B000B0B592B000AF786039600620774B98477F
:1033C00003001A003023FB181A700720734B98472C
:1033D00003001A003023FB185A7008206F4B9847DF
:1033E00003001A003023FB189A7009206B4B984792
:1033F00003001A003023FB18DA700320674B98474C
:1034000003001A002C23FB181A700420634B984702
:1034100003001A002C23FB185A7005205F4B9847B5
:1034200003001A002C23FB189A701F23FB632CE067
:10343000FB6B002B00DA0733DB105B4203333022D7
:10344000BA18D35C1900FB6B554A134004D5013BF5
:10345000082252421343013319410B000122134049
:10346000FA6B173A4F494A43022191400A005A43E6
:103470004D4B10009847021C4C4B111C786C984720
:10348000031C7B64FB6B013BFB63FB6B002BCFDA04
:103490001623BB632CE0BB6B002B00DA0733DB1079
:1034A0005B4202332C22BA18D35C1900BB6B3C4A36
:1034B000134004D5013B0822524213430133194102
:1034C0000B0001221340BA6B173A36494A430221D6
:1034D00091400A005A43344B10009847021C334B6A
:1034E000111C386C9847031C3B64BB6B013BBB63EE
:1034F000BB6B002BCFDA2C23FB181B78DB09DBB26C
:103500001A0001239B1A01221A40274B10009847EA
:10351000021C274B111C386C9847031C3B64254B3D
:103520002549786C9847031C1C1C1F4B78689847EA
:10353000051C204B2049386C9847031C1A1C1F4B54
:10354000111C281C9847031C1A1C194B111C201C09
:103550009847031C7B631A4B786B984702003B68C3
:103560001A603B681C1D3B681A680F4B1000984797
:10357000021C124B111C786B9847031C1A1C0C4B35
:103580000D49101C9847031C1A1C0D4B101C984722
:1035900003002360C046BD4612B0B0BD1D3100001F
:1035A00007000080102700001D130200B107020071
:1035B000650D0200D50A020000401C46A50F02005E
:1035C000DD12020080B584B000AF78600C4B9847E4
:1035D000C04600200B4B984703001A0020231340DD
:1035E000202BF6D1084B98470300FB60FB687A68F4
:1035F00011001800054B9847C046BD4604B080BD79
:10360000D13200001D3100008D330000B1330000C5
:1036100090B593B000AF7860764B1800764B984722
:10362000764B05221A70764B9847764B76480822DF
:103630000021764CA047C8233B644723FB18002297
:103640001A70C820724B98476C4B1B78052B05D01D
:10365000062B00D1CBE0042B1FD0C4E0674B042223
:103660001A701023FB1800225A601023FB18002246
:103670001A811023FB1800221A80664B98470823F2
:10368000FB181800644B9847644B98475D4B64489F
:10369000082200215D4CA047AAE0624B1B78002B5A
:1036A00006D01023FB1800221A815E4B00221A70EC
:1036B000584B98470823FB181800574B9847082386
:1036C000FB181B68584A12789A1A584B10009847F2
:1036D000574C584A584BA04703000C0019002200D1
:1036E000564B08001100984703009AB21023FB18AC
:1036F0001A801023FB181B88514A1C21781820219E
:10370000504CA0471C23FB1818003B4B9847102334
:10371000FB181B894C4A1C2178182021494CA047D2
:10372000384B1C22B81819220021384CA047474BAF
:1037300098470300FB63FB6B002B10D04723FB185B
:103740001B7801225340DBB2002B03D04723FB1828
:1037500001221A703E4B1800274B984732E047234E
:10376000FB181B78002B23D04423FB181B88102246
:10377000BA1812889A1A1023FB185A604723FB18AC
:1037800000221A701023FB185B68002B0BDD10233E
:10379000FB181A891023FB185B689BB2D3189AB2E6
:1037A0001023FB181A812B4B1800134B984709E084
:1037B0004423FB181022BA1812881A80264B1800CE
:1037C0000D4B98471023FB181800244B9847031EF5
:1037D00004D0234B1800084B984709E0214B1800F0
:1037E000054B984704E0054B05221A7000E0C046DF
:1037F00027E7C046F850020075B800008C49002049
:10380000F5110000100000200C510200991000007A
:10381000219C000035320000C53500007105000014
:1038200018510200B5080020B6080020D92B02006C
:10383000452002006666666666661340712B0200CC
:1038400028510200153002003851020031030000F7
:10385000445102004C51020054510200B94F000083
:10386000605102007051020080B500AF024B01228E
:103870001A70C046BD4680BDB508002080B582B034
:1038800000AF074B98473B001800064B98473B009A
:103890001B68DAB2044B1A70C046BD4602B080BD48
:1038A00035320000C5350000B608002080B584B070
:1038B00000AF0200FB1D1A700F23FB18FA1D1278CF
:1038C000D2091A700E23FB18FA1D127852091A70C9
:1038D0000D4BBB600F23FB181B78002B0FD10F2360
:1038E000FB181B789B0010229446BC446344083BA1
:1038F0001A680E23FB181B78DB01D31800E00023A5
:103900001800BD4604B080BD0044004180B582B0BF
:1039100000AF0200FB1D1A70FB1D1B781800034B43
:10392000984703001800BD4602B080BDAD380000C6
:1039300080B584B000AF0200FB1D1A70BB1D0A1CCD
:103940001A70FB1D1B7818000D4B98470300FB6095
:10395000FB1D1B781F22134001229A401300BB60FD
:10396000BB1D1B78002B03D0FB68BA689A6102E08C
:10397000FB68BA685A61C046BD4604B080BDC04607
:103980000D39000080B500AF024B00221A70C0460E
:10399000BD4680BDC908002080B582B000AF0200DE
:1039A000FB1D1A70FB1D1B785BB2DB435BB2064A42
:1039B000127852B213405BB2DAB2034B1A70C046AF
:1039C000BD4602B080BDC046C908002080B582B0A7
:1039D00000AF0200FB1D1A70054B1A78FB1D1B7807
:1039E0001343DAB2024B1A70C046BD4602B080BD26
:1039F000C908002080B582B000AF0200FB1D1A701C
:103A0000064B1B78FA1D12781340DBB25A1E934105
:103A1000DBB21800BD4602B080BDC046C908002018
:103A200090B585B000AF786039607B68002B02D01C
:103A30003B68002B01D1002313E00F23FC183968E9
:103A40000A4B002218000A4B984703002370074BCB
:103A50001800084B98470F23FB181B785A42534114
:103A6000DBB21800BD4605B090BDC046FC0A002080
:103A700071B4010071BE010080B59EB000AFF86066
:103A8000B960FB1D1A707623FB1801221A8074237B
:103A9000FB1800221A806E23FB1800221A80722362
:103AA000FB1800221A802423FB18180041231A0057
:103AB0000021924B98471823FB18180009231A007D
:103AC00000218E4B98471423FB1800221A60002314
:103AD000BB667123FB1800221A70BB68002B01D152
:103AE000002306E1BA68FB6811001800844B984770
:103AF00003001A0001235340DBB2002B01D0012345
:103B0000F7E0BB6818007F4B98470300402B01D9B2
:103B10000023EEE0BB682E2118007B4B9847030082
:103B2000BB66BB6E002B52D0BB6E1800754B98471E
:103B300002006E23FB181A806E23FB181B88072BCC
:103B400037D87123FB1801221A70BA6E1823FB189C
:103B5000110018006D4B9847BB681800694B9847D7
:103B600002006E23FB181B88D31A3C2B11D9742337
:103B7000FB186E22BA1812883C218A1A1A80742304
:103B8000FB181A88B9682423FB181800604B984763
:103B90002AE0BA6EBB68D21A7423FB181A80742309
:103BA000FB181A88B9682423FB181800584B98474B
:103BB0001AE07423FB183C221A807423FB181A881D
:103BC000B9682423FB181800514B98470CE0742364
:103BD000FB183C221A807423FB181A88B968242326
:103BE000FB1818004A4B98477423FB181B88742253
:103BF000BA18591C11801A002423FB182D2199543E
:103C00007623FB1800221A807223FB1801221A80E7
:103C100010E07223FA187223FB181B88191C890004
:103C2000CB18DB1813807623FB181A887623FB1831
:103C300001321A807623FB181B88022BE9D97623E0
:103C4000FB1801221A804BE07623FB181A883149B1
:103C50001423FB181800304B98477423FB181B885B
:103C60002422BA18D3181422B91803221800284B9A
:103C700098477123FB181B78002B0CD07423FB187A
:103C80001B8803332422BA18D3181822BA1811003B
:103C900018001E4B98472423FA18FB6811001800DF
:103CA000174B984703001A0001235340DBB2002B47
:103CB0000FD0FB1D1A78BB68002118000F4B9847E6
:103CC0002423FA18BB6811001800104B98470123F1
:103CD0000FE07623FB181A887623FB1801321A802E
:103CE0007623FA187223FB1812881B889A42ABD3EA
:103CF00000231800BD461EB080BDC046BB2D02008B
:103D0000213A000057310200B13102000D310200AA
:103D100087310200985102007930020090B583B0DB
:103D200002AF0120224B984703001A0001235340A1
:103D3000DBB2002B05D01F4B190001201E4B98470A
:103D400032E002201A4B984703001A000123534027
:103D5000DBB2002B05D0194B19000120164B9847F8
:103D600022E00420124B9847031E05D0144B190083
:103D70000120114B984717E008200D4B9847031E70
:103D800005D0104B190001200B4B98470CE00E4B4F
:103D900019000120084B98470C490D480023009357
:103DA000002301220B4CA047BD4601B090BDC04688
:103DB000F5390000A051020061B90000CC510200A9
:103DC000F851020024520200505202007C520200BC
:103DD000E8490020C5EA0100B0B586B000AF7860C0
:103DE00039607B68002B02D03B68002B05D1584B13
:103DF00019000120574B9847A6E00820564B9847DA
:103E000003001A0001235340DBB2002B55D00023DE
:103E10007B61524B30221A70504B3A225A70504BF1
:103E20007B6102E07B69013B7B617B691B782F2B07
:103E3000F8D17B6918004B4B98470300012B24D91C
:103E40007B6901337B617A69474B11001800474B4E
:103E500098474249464B40221800464B98473F4AF4
:103E6000454B190001203B4B98471323FC183B4955
:103E70003F4B0A221800414B98470300237013233D
:103E8000FB181B78002B12D008E03D4B19000120D5
:103E9000304B984720203B4B984755E01323FB18A5
:103EA0001A78394B190001202A4B98474CE0374BC0
:103EB00000221A600820334B98477B68002B43D0C0
:103EC0000023FB601323FC180C23FB183A68796865
:103ED00027482F4DA847030023701323FB181B7896
:103EE000002B0CD0224B18002A4B98472020254B42
:103EF0009847294B19000120164B984724E0234B83
:103F00001A68FB68D218214B1A60204B1A68234BA1
:103F10001B68234901200F4CA0471C4B1A681F4BFC
:103F20001B689A4210D3124B18001A4B98471D4B2E
:103F300019000120074B9847002117201A4B98477A
:103F40001020104B9847C046BD4606B0B0BDC046D5
:103F5000A852020061B90000F5390000B400002049
:103F6000A652020057310200B60000200D310200B7
:103F7000FC0A0020793A00000C53020071B40100E1
:103F8000CC520200CD39000034530200240B002033
:103F9000A1B9010071BE010068530200200B00208E
:103FA000A4530200D85302003139000090B585B007
:103FB00000AFF860B9607A60BB68042B00D977E085
:103FC000BB689A003C4BD3181B689F463B4B1900BB
:103FD00001203B4B98476BE03A4B19000120384BCE
:103FE00098470420384B984762E07B681B881A008A
:103FF0007B685B6835490120314CA0477B681B8892
:10400000C82B0DD17B685A68314B1A60314B0022A6
:104010001A607B685A6880239B009A4243D803E069
:104020002020294B984743E07B689A687B685B684F
:1040300019001000284B98471020234B984732E076
:104040007B685A687B681B6819001000224B9847F0
:104050007B681B7A002B28D010201B4B984724E04C
:104060007B681A681D4B19000120154B98477B6827
:104070001B680B331BD10820194B9847031E06D031
:10408000184B1800184B98470820184B98470420E5
:10409000134B9847031E02D00420144B9847144B2F
:1040A0009847C04603E0C04602E0C04600E0C04674
:1040B000BD4605B090BDC046EC5A02000C5402004B
:1040C00061B9000044540200CD3900007054020070
:1040D000200B0020240B0020D93D0000AC5402002E
:1040E000F5390000FC0A002071BE0100993900007A
:1040F0001D3D000080B582B000AF3A60FB1D021C80
:104100001A70BB1D0A1C1A703A68BB1D1978FB1D7A
:104110001B785BB21800034B9847C046BD4602B0FF
:1041200080BDC046D5E70100B0B586B004AF786069
:1041300039603B68FF2213401C003B681B0A1A00D1
:10414000FF2313403A68120C1100FF220A4039681D
:10415000090E0D0078680949029501920093230029
:1041600002000120064CA0473A687B681100180045
:10417000044B9847C046BD4602B0B0BDDC540200B7
:1041800061B9000039E9010090B587B002AF0200C3
:104190003960FB1D1A70FB1D1B782C2B02D0322BB3
:1041A0003DD06FE03B68FB60FB681B78012B07D1BB
:1041B000364B19000120364B9847364B98475EE046
:1041C000FB681B78002B5AD1334B19000120304B70
:1041D00098470220314B98470820314B9847031EDF
:1041E00006D0304B1800304B984708202B4B98478F
:1041F00004202B4B9847031E02D00420274B9847DE
:104200002A4B012118002A4B98472A4A2A48FF23A3
:104210000093130002220321284CA0472FE03B68A3
:10422000BB60BB681B781800BB6801331B781C009F
:10423000BB6802331B781A00BB6803331B78204924
:1042400001930092230002000120114CA04702209C
:104250001C4B98471C4B1B78012B02D11B4B9847DA
:104260000FE01B4A114B110018001A4B9847031E10
:1042700007D0194B19000120054B984701E0C046B3
:1042800000E0C046C046BD4605B090BD0C550200DA
:1042900061B90000A5FF00002C550200993900000B
:1042A000F5390000FC0A002071BE0100280B002037
:1042B00081D40100505502005C550200D1FA000083
:1042C00060550200CD390000C80800201D3D0000E7
:1042D000845102004DD301008855020090B583B08F
:1042E00000AF294B9847294B19000120284B9847CC
:1042F000FC1D0020274B984703002370FB1D1B78F3
:10430000012B10D1244B19000120214B9847234B3E
:10431000190001201E4B9847C0460020204B9847AB
:104320000300022BF9D1FB1D1B78002BE0D11D4BA4
:1043300019000120164B98478C239A001A4B002134
:1043400018001A4B9847BC1D174B19000020184B3A
:10435000984703002370BB1D1B780B2B07D1BB1D97
:104360001A78144B19000120094B984708E0124BAA
:1043700019000120064B98470120104B9847C04672
:10438000BD4603B090BDC04679C70000AC550200E1
:1043900061B9000055CC0000E45502000C56020043
:1043A000C9C7000040560200CC080020BB2D020007
:1043B00019B401006456020094560200CD39000081
:1043C00080B582B000AF3B1D1800084B98473A1DDE
:1043D000074B11001800074B9847054B1800064B78
:1043E0009847C046BD4602B080BDC04669FF010087
:1043F000904900208DFF01007900020080B588B04F
:1044000000AF3B001800154B98473B0080229200FC
:104410001A613B00124A5A603B0050221A803B004E
:1044200000229A703A000F4B110018000E4B98476B
:104430000300FB61FB69002B06DAFA690B4B1900DC
:1044400001200B4B9847FEE70A4A064B1100180063
:10445000094B9847C046BD4608B080BDFDE5010048
:1044600090490020E849002049E60100B8560200C2
:1044700061B90000AD3F000035E7010080B582B0B2
:1044800000AF3A60FB1D021C1A70BB1D0A1C1A709B
:104490003A68BB1D1978FB1D1B785BB21800034BF3
:1044A0009847C046BD4602B080BDC046F5D2010067
:1044B00080B582B000AF786039603A687B681100DF
:1044C0001800034B9847C046BD4602B080BDC046A9
:1044D00029D3010090B583B000AF78607B685B683A
:1044E0005A687B685B689B6810490120104CA047A4
:1044F0007B685B6898687B681B68DA680D4B1900FD
:104500000D4B9847031E0DD17B681B6898687B682C
:104510001B68DA68094B1900074B9847031E01D145
:10452000074B9847C046BD4603B090BD00570200F8
:1045300061B90000085702006531020028570200E7
:104540006938000090B583B000AF78607B685B6825
:104550005A687B685B689B6810490120104CA04733
:104560007B685B6898687B681B68DA680D4B19008C
:104570000D4B9847031E0DD17B681B6898687B68BC
:104580001B68DA68094B1900074B9847031E01D1D5
:10459000074B9847C046BD4603B090BD0057020088
:1045A00061B9000030570200653102004C5702002B
:1045B0007D38000090B583B000AF78607B685B68A1
:1045C0005A687B685B689B6821490120214CA047A1
:1045D000214B190001201F4B98477B681B68DA6844
:1045E0007B681B689B681D4901201A4CA0477B68AB
:1045F0005B6898687B681B68DA68194B1900194B6F
:104600009847031E20D17B681B6898687B681B68ED
:10461000DA68154B1900134B9847031E04D101218A
:104620001720124B98470FE07B681B6898687B68DF
:104630001B68DA680E4B19000A4B9847031E03D11A
:1046400000211720094B9847C046BD4603B090BDD6
:104650000057020061B900008C5702009457020015
:104660009C57020065310200B85702003139000042
:10467000C057020090B58BB006AFF860B9607A60A1
:10468000BB68012B3BD0052B5ED0002B00D061E036
:104690007B681B68002B25DB304B19000120304B59
:1046A00098473049304AF868002305930023049363
:1046B0000023039300230293002301932A4B0093CA
:1046C0000B000121294CA047031E05D0284B1900DF
:1046D0000120234B98473DE0264B19000120204B39
:1046E000984737E0244A254B190001201C4B984776
:1046F000214AFB6811001800214B98472AE07B688B
:104700001B78002B17D11F4B1F49F86802221F4C42
:10471000A0471F4B1F49F86802221C4CA0471E4BA4
:104720001E49F8680222194CA0471D4B19000120B0
:104730000B4B98470EE07B681B781A00194B190049
:104740000120074B984705E0174B19000120044B47
:104750009847C046C046BD4605B090BDC857020048
:1047600061B90000E4570200F057020095D3010040
:10477000F857020020580200845102003C58020001
:104780004DD30100B54500009C57020035D501000E
:10479000D54400000857020045450000305702008C
:1047A0007458020088580200BC58020080B588B0D6
:1047B00000AF3B1D18001F4B98473B1D1E4A9A60D7
:1047C0003B1D80225200DA603B1D1C4A1A613B1DD2
:1047D000802252005A613B1D194A1A803B1D194A1A
:1047E0009A803A1D184B11001800184B9847030087
:1047F000FB61FB69002B06DAFA69154B19000120F1
:10480000144B9847FEE7144A0F4B11001800134B46
:1048100098470300FB61FB69002B06DAFA69104B2D
:10482000190001200B4B9847FEE7C046BD4608B073
:1048300080BDC0468DD20100600B0020600C0020BE
:104840005B07000070170000280B0020DDD101007D
:10485000D058020061B9000075460000CDD20100B9
:104860000459020080B584B000AF3B1D18000B4B0B
:1048700098473B1D37221A603B1D00225A603B1DA2
:1048800001221A723B1D0222DA723B1D1900072019
:10489000034B9847C046BD4604B080BDC5430100E8
:1048A000F943010080B500AF064B00220721180034
:1048B000054B984700210720044B9847C046BD464A
:1048C00080BDC046D1480000C53F0100294001001D
:1048D000B0B500AF0C4B1B685A1C0B4B1A600A4B4F
:1048E0001B68282B02D9084B01221A60064B1B6853
:1048F000064A07483F21074CA047074B01221A7080
:10490000C046BD46B0BDC046B000002038590200C8
:104910007000002015300200600D002080B500AF4F
:10492000154A164B11001800154B9847031E08D066
:10493000144B19000120144B984702E00020134B40
:1049400098470E4B34229B5C002BF7D1104B9847B5
:10495000104B01221A70104A104B11001800104B16
:104960009847104B9847104B9847104B03221A70EA
:10497000C046BD4680BDC04684510200280B0020C1
:1049800081D401008855020061B90000B5FA000029
:1049900071300100C808002029410000F5400000E6
:1049A000B9300100213001001D3D0000B708002092
:1049B00090B585B000AF09E000202A4B98472A4BFC
:1049C00018002A4B98470520294B98471020294B5F
:1049D000984703001A0001235340DBB2002B09D093
:1049E0002020244B984703001A0001235340DBB2D8
:1049F000002BE1D1204B9847FA239B0018001C4B59
:104A000098471E4B00221A703B001D4A13CA13C35D
:104A10003B0030221A700F23FC183900194B0A2270
:104A20001800194B9847030023700F23FB181B78BD
:104A3000002B08D00F23FB181A78144B1900002004
:104A4000134B984703E0134B1800134B98470D4B3B
:104A50001800124B9847124B00221A70C046BD46F0
:104A600005B090BDB5FA000090490020A9010200F0
:104A7000219C0000F539000071300100C8080020B9
:104A800070590200FC0A002071B401004C59020068
:104A900061B900005C59020075B8000071BE0100E8
:104AA000B708002080B500AF184B9847184B9847BF
:104AB000184A194B11001800184B9847184B984783
:104AC000184B34229B5C01225340DBB2002B0CD0EC
:104AD000154A144B11001800144B9847031E04D0BC
:104AE000134B19000120134B98470E4B34229B5C4B
:104AF000002B04D0104B190001200E4B98470F4B90
:104B000001221A70C046BD4680BDC046713001000A
:104B1000AD470000B14400007D440000B930010001
:104B200021300100280B0020845102004DD30100E8
:104B30008855020061B900007C590200B7080020C6
:104B400080B500AF00200B4B98470B4B18000B4B68
:104B500098470B4B98470B4B98470B4B34229B5C69
:104B6000002B04D0084B64211800084B9847C0461E
:104B7000BD4680BDB5FA000090490020A9010200A1
:104B8000914B0000254C0000280B00207DD5010032
:104B9000B0B586B004AF1A4B1B683900002218006C
:104BA000184B98470300012B25D13B0000229B5E48
:104BB0001D003B0002229B5E19003B0004229B5E0D
:104BC0001C003B00DB88104A1048029301940091BE
:104BD0002B003F210E4CA0470C4B18000D4B984763
:104BE00004000A4A0C490D48002301930123009355
:104BF00023000B4CA047C046BD4602B0B0BDC04626
:104C0000C0080020758A000098590200300000207A
:104C10001530020057310200D0590200280B002045
:104C2000C9D4010090B587B002AF164B1B68391D7F
:104C300000221800144B98470300012B1ED13B1D86
:104C40001B881C003B1D5B683A1D128911000F4A2E
:104C50000F480191009323003F210E4CA0470C4BBD
:104C600018000D4B98470400094A0C490C480023D2
:104C700001930123009323000A4CA047C046BD4680
:104C800005B090BDC4080020758A0000EC590200F0
:104C9000300000201530020057310200105A020087
:104CA000280B0020C9D4010090B58DB002AF786008
:104CB00064207A4B98477A4B9847002204210520BC
:104CC000784B98470200784B1A6000220821052093
:104CD000744B98470200754B1A6000221421022081
:104CE000704B98470200724B1A6000220C2105207D
:104CF0006C4B984702006F4B1A606B4B1B68002B84
:104D00000BD06A4B1B68002B07D0694B1B68002B2C
:104D100003D0684B1B68002B03D1674B1800674B0F
:104D20009847674B1800654B9847664B9847664B0A
:104D30009847664B9847664B9847664B9847664B33
:104D400098470C23FB18182200211800634B984742
:104D5000634B98470C23FB18624A1A602723FC1800
:104D60000C23FB181800604B98470300237027237F
:104D7000FB181B785BB2002B09D02723FB180022FD
:104D80009A565A4B19000120594B9847FEE7594A49
:104D9000594B19000120564B9847584B9847584A91
:104DA000584B11001800584B9847584A5148FF2358
:104DB0000093130002220321554CA04706E0002077
:104DC000544B9847544B1800544B98470220544B6F
:104DD000984703001A0001235340DBB2002BEED1A9
:104DE000FA239B0018002D4B98474E4B01221A7056
:104DF0004C4B1B785BB2012B0BD002DC002B05D097
:104E000010E0022B08D0032B09D00BE0464B98474B
:104E10000CE0464B984709E0454B984706E0454B68
:104E2000984703E03F4B00221A70C0460B23FB1843
:104E300000221A701C4B1B680B22B91800221800A4
:104E40003D4B98470300012B05D10B23FB181B7822
:104E50005AB2344B1A70394B1B78DBB2002B17D087
:104E6000374B1800374B98470400354A36493748C6
:104E700000230193012300932300354CA047304ABF
:104E8000344B190001201A4B98472C4B00221A7002
:104E900096235B001800014B9847A9E7219C00006E
:104EA00085390000157F0000B8080020C0080020E8
:104EB000BC080020C40800202C5A020075B800006D
:104EC000545A0200C1430000FD430000AD470000FA
:104ED000DD42000065480000A5480000BB2D02002F
:104EE000E9DD000089410000C1F80000705A0200AD
:104EF00061B900005C5502009C5A0200213001009B
:104F0000B14400007D440000B9300100505502005A
:104F1000D1FA0000B5FA000090490020A901020072
:104F2000F5390000B7080020A54A0000414B0000F9
:104F30001D490000B1490000758A0000600D002085
:104F40007000002057310200C05A0200280B0020D8
:104F5000C9D40100DC5A020090B583B000AF020052
:104F6000FB1D1A70FB1D1B78032B06D8054B186818
:104F7000F91D00230A22044CA047C046BD4603B0D9
:104F800090BDC046B8080020BD81000090B585B036
:104F900000AF7860064B1868796800230A22054C38
:104FA000A0470300FB60FB681800BD4605B090BD3C
:104FB000C0080020BD81000090B585B000AF7860CA
:104FC000064B1868796800230A22054CA0470300A5
:104FD000FB60FB681800BD4605B090BDC40800200A
:104FE000BD81000080B582B000AF78607B68002290
:104FF0001A70C046BD4602B080BD000080B582B0C8
:1050000000AF02003960FB1D1A70FB1D1B78012BDD
:105010000AD0022B0FD0002B14D10E4B0D4A9169F0
:105020003A680A439A610FE00A4B0A4AD1693A6822
:105030000A43DA6108E0074B064A116A3A680A43F4
:105040001A6201E0172300E000231800BD4602B0F9
:1050500080BDC0460004004080B582B000AF7860DB
:105060007B6880221A707B6800225A707B6801225C
:105070009A707B680022DA70C046BD4602B080BDDF
:1050800080B500AF054B9B78DBB21A0002231340BA
:105090005A1E9341DBB21800BD4680BD002000417E
:1050A00080B500AF024B9847C046BD4680BDC046A4
:1050B000193D010080B500AF024B9847C046BD4680
:1050C00080BDC0466D3D010080B582B000AF0200DA
:1050D000FB1D1A70074AFB1D1B7819001F230B408C
:1050E000012199400B0019008023D150C046BD46D4
:1050F00002B080BD00E100E080B584B000AF786010
:105100007B681B68FB60FB68DB69072213405A1E43
:105110009341DBB21800BD4604B080BD80B582B0BB
:1051200000AF7860C0467B681800044B9847031EA8
:10513000F9D1C046BD4602B080BDC046F95000005E
:1051400080B584B000AF78607B681B68FB607B68CB
:105150001B6818000D4B9847030018000C4B98472C
:105160007B6818000B4B9847FB6883221A75FB6815
:1051700083221A76FB681B68022293431A00FB689D
:105180001A60C046BD4604B080BDC046ED51010066
:10519000C95000001D510000F0B597B000AF786114
:1051A00039610023FB6300233B650023FB643B2341
:1051B00010229446BC44634400221A707B691B6829
:1051C000BB637B691B687B6323231022BA18D41846
:1051D0007B6B1800C04B9847030023700C231022F0
:1051E0009446BC4463441800BC4B98473B69DB6958
:1051F0007B643B691B6A3B647B6C002B06D17B6B39
:1052000000211800B64B984703007B647B6CDAB230
:105210000C2310218C46BC4463441A700C231022CA
:105220009446BC44634402225A707B6C1B0CDBB274
:105230000C2210218C46BC44624411001800A94B7A
:1052400098473B6C002B06D17B6B01211800A44BC7
:10525000984703003B643B6CDAB20C2310218C4668
:10526000BC4463441A700C2310229446BC4463442B
:1052700002225A703B6C1B0CDBB20C2210218C46B4
:10528000BC44624411001800964B98473B699A8AC7
:105290007B69DA803B69DA8A7B691A813B691B7E0C
:1052A000002B03D1904B9847031E02D080237B65CF
:1052B00001E000237B653B691B69002B04D03B693F
:1052C0001B697A6D13437B653B699B687A6D134359
:1052D0007B653B6924229B5C002B04D07B6D802284
:1052E000D20513437B653B699B6A002B04D03B6965
:1052F0009B6A7A6D13437B653B692C229B5C002B78
:1053000005D13B699A6880239B049A4204D17B6D46
:105310008022120513437B653B692D229B5C002B89
:1053200004D07B6D8022120413437B653B692E22DF
:105330009B5C002B04D07B6D8022D20313437B65E2
:10534000BB6B1A687B6D1A43BB6B1A60BB6B802208
:1053500052005A60232310229446BC4463441B78B5
:105360001433DBB21800614B98470300FB623B69C2
:105370001B68FA2292005343BB623B695B68FA22C6
:10538000920053437B623B691B8E3B62584BF86A29
:10539000984705000E00564BB86A9847B860F96008
:1053A000534BF86A9847534C534A544BA047030059
:1053B0000C003B607C604E4B386A984702000B0043
:1053C0004C4C38687968A04703000C001800210095
:1053D0004B4C00224B4BA04703000C001A0023004B
:1053E000444CB868F968A04703000C001A00230079
:1053F000454C28003100A04703000C001D0026008A
:10540000BB6A5A003A4B1000984702000B003C4C14
:1054100028003100A04703000C00180021003A4C7E
:1054200000223A4BA04703000C001D002600BB6A77
:105430005A002F4B1000984702000B00344C2800F4
:105440003100A04703000C0019002200314B080076
:10545000110098470300FB633B699A6880239B0413
:105460009A426AD1224BF86A9847254C02000B00F9
:10547000A04703000C001D0026001D4B786A9847CA
:105480001C4C0022244BA04703000C001A002300F0
:105490001F4C28003100A04703000C001800210019
:1054A000194C0022194BA04703000C0019002200E0
:1054B000184B0800110098470300FB64FB6C002B9D
:1054C0002ED0164B796AF86A984703009A1EFB6C37
:1054D000D31A3B6531E0C0461D5101005950000010
:1054E000614F01000D7D010081500000D17A010063
:1054F0005D2C02004520020095D626E80B2E113EB9
:10550000BD13020000002440452502000000F03FCA
:10551000DD190200712B0200000008407104020036
:105520007B6A5A00FB6AD3185A1E7B6A59001D4BCE
:10553000100098470300013B3B65FB6BFF2B08DC29
:10554000FB6B002B05DB3B6DFF2B02DC3B6D002B67
:1055500006DA3B2310229446BC44634440221A706E
:105560003B2310229446BC4463441B78402B0ED04E
:10557000FB6BFF221A403B6D1B041900FF231B0429
:105580000B401343FA6C12061A43BB6BDA603B23E1
:1055900010229446BC4463441B781800BD4617B0E3
:1055A000F0BDC0467104020090B58BB000AFF8604A
:1055B000B9607A60FB68BA681A60FB681B687B6236
:1055C000FB681B6818003B4B984703003B623B6A33
:1055D0000233FB613B6A1433BB610122FB699A40D1
:1055E000130019000220344B98471423FB181800AD
:1055F000324B98477B681A7B1423FB181A70BB69DF
:10560000DBB21422BA18110018002D4B9847BB6961
:10561000DBB218002B4B98477B681B7B00211800DE
:10562000294B98477B6A1B680222134001D01C2338
:105630003BE07B6A1B680122134001D0052334E064
:10564000FB681B681722BC1818001A4B9847030008
:1056500023701E4A1723FB181B78110018001C4BDF
:1056600098471723FB181A781A4B9200F968D15003
:10567000FB6800221A76FB6800225A76FB6800223B
:105680005A83FB6800229A83FB68252200219954E3
:10569000FB6800221A627B6A14221A607A68FB682F
:1056A000110018000C4B984703001800BD460BB0C2
:1056B00090BDC0461D510100FD4F0000E54F0000A8
:1056C000AD790100F1790100D54E0100ED1E000019
:1056D00081510100E85C00209951000080B584B040
:1056E00000AF78607B681B68FB607B6818000F4B1D
:1056F00098477B6818000E4B98470E4B98477B687D
:105700001B6818000C4B9847030018000B4B984778
:105710000B4B98477B681800044B9847FB680122A5
:105720001A60C046BD4604B080BDC0461D51000091
:1057300041510000A1500000ED510100297B010002
:10574000B550000080B584B000AF78607B681B68FE
:10575000FB60FB681B7EDBB21A00022313400BD0F8
:10576000FB6802221A76FB685B8B9BB21A0002234D
:10577000134011D0412310E0FB685B8B9BB21A00F1
:105780000423134008D0FB685B68C02292021A43CE
:10579000FB685A60182300E000231800BD4604B0DF
:1057A00080BD80B584B000AF78607B681B68BB604B
:1057B0000E23FB1800221A800FE00E23FB180E2286
:1057C000BA18128801321A807B681B890E22BA1817
:1057D00012889A4201D312230EE0BB681B7EDBB213
:1057E0001A000123134006D1BB681B7EDBB21A00EE
:1057F00002231340E1D000231800BD4604B080BD51
:1058000090B585B000AF78600A00FB1C1A707B6809
:105810001B68FB60FB685B688022D2021A43FB684E
:105820005A60FB1C1A78FB685A620B23FC187B68D1
:105830001800074B984703002370FB6801221A7673
:105840000B23FB181B781800BD4605B090BDC04661
:10585000A357000080B500AF0020024B9847C04618
:10586000BD4680BD9158000080B500AF0120024BBD
:105870009847C046BD4680BD9158000080B500AF36
:105880000220024B9847C046BD4680BD915800009B
:1058900080B584B000AF0200FB1D1A70FB1D1A78A2
:1058A000284B9200D358FB60FB681B689B7BDBB2E4
:1058B000FA68127E1340DAB2FB68597E0B23FB189C
:1058C0000A401A700B23FB181B780122134008D0E2
:1058D000FB689B68FA6810009847FB681B68012208
:1058E0009A730B23FB181B780222134008D0FB6825
:1058F000DB68FA6810009847FB681B6802229A73FD
:105900000B23FB181B781022134008D0FB681B697F
:10591000FA6810009847FB681B6810229A730B23E3
:10592000FB181B782022134008D0FB685B69FA68DB
:1059300010009847FB681B6820229A73C046BD463A
:1059400004B080BDD04A002080B584B000AF78603C
:105950000023FB607B68002B01D172B6FEE70820B4
:10596000114B98470300BB60BB68002B01D172B696
:10597000FEE7BB68002B12D00C4B9847BB687A68D7
:105980001A60BB6800225A60094B1B68BA685A60EB
:10599000074BBA681A60074B98470123FB60FB6806
:1059A0001800BD4604B080BD617D0000297C000068
:1059B000000100204D7C000080B588B000AFF86089
:1059C000B9607A600123FB613D4B1B68002B44D119
:1059D0003B4B3C4A1A603AE0394B1B681B681B681A
:1059E000BB61BB691800384B984703007B61FA68BC
:1059F0007B69D3181B78202B05D0FA687B69D318F4
:105A00001B78002B1ED17A69B969FB6818002F4BEF
:105A10009847031E16D12A4B1B681B681B7B5BB281
:105A2000002B19DBFB681800294B984703001A006C
:105A3000234B1B681B681B7B5BB29A420CD0002374
:105A4000FB6109E01E4B1B685A681D4B1A601C4B1A
:105A50001B68002BC0D100E0C046194B1B68002B0F
:105A60000CD0FB69002B09D17A681A49BB68180071
:105A7000194B9847124B00221A601CE0104B1B6810
:105A8000002B10D00E4B1B681B689B68FA68796866
:105A9000B86898470300FB61FB69002B0BD1084BEA
:105AA00000221A6007E07A680C49BB6818000A4BAC
:105AB00098470023FB61FB691800BD4608B080BD14
:105AC000640D0020F800002057310200653102000B
:105AD000415B0000385B020087310200905B0200EE
